:020000040000fa
:10000000f8ff0320f5d90500a1e40500a7e40500e9
:10001000b3e40500b9e40500bfe4050000000000fa
:10002000000000000000000000000000595a050018
:10003000ade4050000000000795b0500e75b05000a
:100040006733050067330500673305006733050034
:100050006733050067330500673305006733050024
:100060006733050067330500673305006733050014
:100070006733050067330500673305006733050004
:1000800067330500673305006733050067330500f4
:1000900067330500673305006733050067330500e4
:1000a00067330500673305006733050067330500d4
:1000b00067330500673305006733050067330500c4
:1000c00067330500673305006733050067330500b4
:1000d00067330500673305006733050067330500a4
:1000e00067330500673305000000000000000000d2
:1000f0000000000067330500673305006733050023
:100100006733050067330500673305006733050073
:10011000673305006733050071a6030071a603006d
:1001200071a6030071a603001162040011620400ad
:100130001162040011620400673305006733050093
:10014000673305006733050085b2030085b20300fd
:1001500085b2030085b203006733050067330500ed
:100160006733050067330500296904002969040025
:100170002969040029690400673305006733050015
:10018000a12f0400b92f0400d12f0400e92f04008f
:1001900067330500673305006733050067330500e3
:1001a00067330500673305006733050067330500d3
:1001b00067330500673305006733050067330500c3
:1001c00067330500673305006733050067330500b3
:1001d00067330500673305006733050067330500a3
:1001e000673305006733050067330500116b0500b1
:1001f0006733050067330500673305006733050083
:100200006733050067330500673305006733050072
:100210006733050067330500673305006733050062
:100220006733050067330500673305006733050052
:100230006733050067330500673305006733050042
:100240006733050067330500673305006733050032
:100250006733050067330500673305006733050022
:0402600067330500fb
:020000040000fa
:10026400f8b500bff8bc08bc9e467047d9dd050050
:10027400f8b500bff8bc08bc9e467047b5dd050064
:020000040000fa
:08028400805405000100000098
:020000040000fa
:10028c0080b485b000af78607b6801331b78fb814c
:10029c00fb891b021ab27b681b781bb213431bb27f
:1002ac00fb81fb8918461437bd465df8047b70470b
:1002bc0080b485b000af78607b6803331b78fb603b
:1002cc00fb681b027a68023212781343fb60fb68ee
:1002dc001b027a68013212781343fb60fb681b0225
:1002ec007a6812781343fb60fb6818461437bd46d6
:1002fc005df8047b70472de9f00f8cb000af78628d
:10030c007b6a07331b78dbb24ff00004c7e90a3471
:10031c00d7e90a344ff000014ff00002220242ea02
:10032c00136219027b6a06331b78dbb24ff00004b0
:10033c0041ea030542ea0406c7e90a56d7e90a343a
:10034c004ff000014ff00002220242ea1362190240
:10035c007b6a05331b78dbb24ff0000441ea0308db
:10036c0042ea0409c7e90a89d7e90a344ff00001c7
:10037c004ff00002220242ea136219027b6a043334
:10038c001b78dbb24ff0000441ea0300b86142ea8b
:10039c000403fb61d7e90634c7e90a34d7e90a122a
:1003ac004ff000034ff00004140244ea11640b02f6
:1003bc007a6a03321278d1b24ff0000243ea01009c
:1003cc00386144ea02037b61d7e90434c7e90a3493
:1003dc00d7e90a124ff000034ff00004140244ea6c
:1003ec0011640b027a6a02321278d1b24ff0000219
:1003fc0043ea0100b86044ea0203fb60d7e9023427
:10040c00c7e90a34d7e90a124ff000034ff0000491
:10041c00140244ea11640b027a6a01321278d1b2e6
:10042c004ff0000243ea0100386044ea02037b60ab
:10043c00d7e90034c7e90a34d7e90a124ff00003b0
:10044c004ff00004140244ea11640b027a6a127829
:10045c00d1b24ff0000243ea010a44ea020bc7e9a9
:10046c000aabd7e90a34184621463037bd46bde8f9
:10047c00f00f704780b483b000af78600b467b8080
:10048c007b685a1c7a607a88d2b21a707b881b0af5
:10049c007b807b685a1c7a607a88d2b21a7000bf53
:1004ac000c37bd465df8047b704780b483b000af59
:1004bc00786039607b685a1c7a603a68d2b21a70dc
:1004cc003b681b0a3b607b685a1c7a603a68d2b264
:1004dc001a703b681b0a3b607b685a1c7a603a684e
:1004ec00d2b21a703b681b0a3b607b685a1c7a605c
:1004fc003a68d2b21a7000bf0c37bd465df8047b67
:10050c00704790b484b000aff860c7e90023fb6873
:10051c005a1cfa603a781a70d7e900124ff00003af
:10052c004ff000040b0a43ea0263140ac7e90034d3
:10053c00fb685a1cfa603a781a70d7e900124ff02f
:10054c0000034ff000040b0a43ea0263140ac7e9e4
:10055c000034fb685a1cfa603a781a70d7e900121a
:10056c004ff000034ff000040b0a43ea0263140a35
:10057c00c7e90034fb685a1cfa603a781a70d7e95c
:10058c0000124ff000034ff000040b0a43ea026321
:10059c00140ac7e90034fb685a1cfa603a781a70de
:1005ac00d7e900124ff000034ff000040b0a43eaa6
:1005bc000263140ac7e90034fb685a1cfa603a78e3
:1005cc001a70d7e900124ff000034ff000040b0a29
:1005dc0043ea0263140ac7e90034fb685a1cfa6048
:1005ec003a781a70d7e900124ff000034ff000046c
:1005fc000b0a43ea0263140ac7e90034fb685a1c6d
:10060c00fa603a781a7000bf1037bd4690bc70473c
:10061c0080b483b000af0346fb71fb79002b01d093
:10062c00002300e0002318460c37bd465df8047b20
:10063c00704780b483b000af0346fb71fb79002b8d
:10064c0001d0002300e0002318460c37bd465df8ae
:10065c00047b704780b586b000af78607b681b6800
:10066c007b617b695a1c7a611b787b827b8adbb24b
:10067c001846fff7cdff0346002b15d07b695a1c9b
:10068c007a611b787b747b7c1846fff7d2ff03469c
:10069c00002b02d14ff0ff331de07b8a1b029ab274
:1006ac007b7c9bb213447b827b8a002b0dd07b8a94
:1006bc0040f2b511184657f001fd03467b827b8a48
:1006cc00002b02d14ff0ff3305e07b8afb607b6887
:1006dc007a691a60fb6818461837bd4680bd80b52c
:1006ec0086b000aff860b9607a6040f2b511f86876
:1006fc0057f0aafc0346fb82fb8aff2b14d97b68bc
:10070c00012b01d800231ee0fb8a1b0a99b2bb689f
:10071c005a1cba60cab21a70bb685a1cba60fa8a00
:10072c00d2b21a7002230ee0fb8a002b02d07b6837
:10073c00002b01d1002306e0bb685a1cba60fa8a70
:10074c00d2b21a70012318461837bd4680bd80b44a
:10075c0085b000af786039600023bb600023fb607c
:10076c0029e0274afb681b0113441b68002b1dd092
:10077c00234afb681b0113441a687b681b689a4266
:10078c0016d11f4afb681b01134404331a687b689b
:10079c009b689a420cd11a4afb681b01134408331c
:1007ac001a687b681b6b9a4202d107e00123bb607d
:1007bc00fb680133fb60fb68012bd2d9fb68022b71
:1007cc0009d1bb68002b04d13b68022b01d012234a
:1007dc0010e000230ee03b68002b08d1084afb68b0
:1007ec001b0113440c331b68b3f5807f01d110231c
:1007fc0000e0002318461437bd465df8047b7047b3
:10080c001430022080b483b000af00237b6002e080
:10081c007b6801337b607b68012b06d8094a7b68b7
:10082c001b0113441b68002bf2d17b68022b14bff5
:10083c0001230023dbb218460c37bd465df8047b60
:10084c00704700bf1430022080b485b000af7860d0
:10085c0039600023fb601fe0414afb681b01134415
:10086c001a687b681b689a4213d13d4afb681b01ce
:10087c00134404331a687b689b689a4209d1384a3e
:10088c00fb681b01134408331a687b681b6b9a4284
:10089c0006d0fb680133fb60fb68012bdcd900e060
:1008ac0000bffb68022b32d10023fb6002e0fb6827
:1008bc000133fb60fb68012b06d8294afb681b013e
:1008cc0013441b68002bf2d1fb68022b01d10023cf
:1008dc003fe07b681a682249fb681b010b441a60d5
:1008ec007b689a681e49fb681b010b4404331a6031
:1008fc007b681a6b1a49fb681b010b4408331a609e
:10090c00174afb681b0113440c3300221a603b6826
:10091c00002b09dd124afb681b0113440c331b68c6
:10092c00002b01d0002314e03b68002b07d10c4aac
:10093c00fb681b0113440c331b68013301e04ff4bb
:10094c0080730749fa6812010a440c321360fb6881
:10095c00013318461437bd465df8047b704700bf61
:10096c001430022080b485b000af78607b68013b06
:10097c007b607b68012b25d8174a7b681b011344cd
:10098c000c331b68fb60fb68b3f5807f01d100233f
:10099c00fb60fb68002b02d0fb68013bfb600e4a3e
:1009ac007b681b0113440c33fa681a60fb68002b3c
:1009bc0005d1094a7b681b01134400221a600023ed
:1009cc00fb7201e00223fb72fb7a18461437bd461a
:1009dc005df8047b704700bf1430022080b485b0f2
:1009ec0000af78600023fb6010e00d4afb681b0130
:1009fc0013441b687a689a4205d1094afb681b01ab
:100a0c00134400221a60fb680133fb60fb68012b66
:100a1c00ebd900bf1437bd465df8047b704700bfaf
:100a2c001430022080b584b000af78600023fb73d3
:100a3c007b681b79002b2cd07b6858787b6803f182
:100a4c0050017b689a6c012355f00ffb0346002b79
:100a5c001dd17b6800221a717b689a6c7b689b6b3a
:100a6c00d21a7b681b6b9a4213d27b68db78022b01
:100a7c000fd17b6858787b6803f150017b689a6cc6
:100a8c007b681b6b1a44012355f0effa01e001233c
:100a9c00fb73fb7b18461037bd4680bd80b584b018
:100aac0000af786039600023fb737b689b6c3a68fd
:100abc009a421bd07868fff7b5ff0346fb73fb7bac
:100acc00002b13d17b6858787b6803f1500101230c
:100adc003a6855f0b3fa0346002b04d04ff0ff33bd
:100aec003b600123fb737b683a689a64fb7b184676
:100afc001037bd4680bd80b584b000af7860786893
:100b0c00fff790ff0346fb73fb7b002b58d17b68f0
:100b1c001b78032b48d17b685b79012b44d17b6814
:100b2c0050334ff40072002118465df0cbfd7b680a
:100b3c00503303f5ff734af655211846fff79afc1c
:100b4c007b68503321491846fff7affc7b68503364
:100b5c0003f5f2731e491846fff7a7fc7b68503368
:100b6c0003f5f4727b689b6919461046fff79dfcf0
:100b7c007b68503303f5f6727b685b691946104647
:100b8c00fff793fc7b685b6b5a1c7b689a647b68f1
:100b9c0058787b6803f150017b689a6c012355f0ff
:100bac0064fa7b6800225a717b685b780022002112
:100bbc00184655f08bfa0346002b01d00123fb732a
:100bcc00fb7b18461037bd4680bd00bf52526141b9
:100bdc007272416180b483b000af786039603b6859
:100bec00023b3b607b68db6a023b3a689a4201d36a
:100bfc00002308e07b681a6c7b685b8919463b68ac
:100c0c0003fb01f3134418460c37bd465df8047b17
:100c1c00704790b589b000af786039607a68126817
:100c2c00ba613a68012a04d9ba69d26a3968914220
:100c3c0002d30123fb610de14ff0ff32fa61ba6977
:100c4c001278013a032a00f2f98001a151f822f03e
:100c5c006d0c0000f50c00002b0d0000650d000064
:100c6c003b687b617b695b087a6913447b61bb6978
:100c7c009a6b7b695b0a13441946b869fff70eff40
:100c8c000346002b40f0dd807b695a1c7a61c3f36c
:100c9c000803ba69134493f850303b61bb699a6bf3
:100cac007b695b0a13441946b869fff7f7fe0346e4
:100cbc00002b40f0c8807b69c3f30803ba69134466
:100ccc0093f850301b021a463b6913433b613b6857
:100cdc0003f00103002b02d03b691b0902e03b69c6
:100cec00c3f30b03fb61b5e0bb699a6b3b681b0a52
:100cfc0013441946b869fff7d1fe0346002b40f0a8
:100d0c00a480bb6903f150023b685b0003f4ff73e2
:100d1c0013441846fff7b4fa0346fb619ae0bb692b
:100d2c009a6b3b68db0913441946b869fff7b6feaa
:100d3c000346002b40f08b80bb6903f150023b68eb
:100d4c009b0003f4fe7313441846fff7b1fa0346f5
:100d5c0023f07043fb617de07a68d2e904120a4308
:100d6c0003d07a689268002a03d17a68d279002a73
:100d7c0061d17a68926839688a1afa607a68d2e91d
:100d8c00041211f1ff3342f1ff344ff000014ff028
:100d9c000002590a41eac451620a0a46bb695b89de
:100dac00b2fbf3f3bb607b68db79022b0ed1fa68e4
:100dbc00bb689a420ad8fa68bb689a4202d03b6870
:100dcc00013301e06ff00043fb6143e07b68db79aa
:100ddc00032b08d17b689b69fa689a4203d23b6863
:100dec000133fb6136e07b68db79022b23d07b6817
:100dfc00db69002b03d06ff00043fb612ae0bb6979
:100e0c009a6b3b68db0913441946b869fff746fe39
:100e1c000346002b1dd1bb6903f150023b689b00bc
:100e2c0003f4fe7313441846fff742fa034623f00b
:100e3c000043fb610ee00123fb610be00123fb612e
:100e4c0008e000bf06e000bf04e000bf02e000bf06
:100e5c0000e000bffb6918462437bd4690bd90b535
:100e6c0089b000aff860b9607a600223fb77bb6889
:100e7c00012b40f2da80fb68db6aba689a4280f098
:100e8c00d480fb681b78013b032b00f2d78001a2b6
:100e9c0052f823f0b10e00008d0f0000cd0f0000b2
:100eac00cd0f0000bb68bb61bb695b08ba6913441a
:100ebc00bb61fb689a6bbb695b0a13441946f86803
:100ecc00fff7ecfd0346fb77fb7f002b40f0af8078
:100edc00fb6803f15002bb69591cb961c3f30803e9
:100eec0013447b61bb6803f00103002b0dd07b69bd
:100efc001b785bb203f00f035ab27b68dbb21b01a9
:100f0c005bb213435bb2dbb201e07b68dbb27a69a4
:100f1c001370fb6801221a71fb689a6bbb695b0a40
:100f2c0013441946f868fff7b9fd0346fb77fb7fbe
:100f3c00002b7ed1fb6803f15002bb69c3f308039d
:100f4c0013447b61bb6803f00103002b03d07b6867
:100f5c001b09dbb20ee07b691b785bb223f00f033d
:100f6c005ab27b681b0a5bb203f00f035bb21343ec
:100f7c005bb2dbb27a691370fb6801221a715de017
:100f8c00fb689a6bbb681b0a13441946f868fff799
:100f9c0085fd0346fb77fb7f002b4cd1fb6803f1ef
:100fac005002bb685b0003f4ff7313447a6892b27f
:100fbc0011461846fff75efafb6801221a713de0f4
:100fcc00fb689a6bbb68db0913441946f868fff79a
:100fdc0065fd0346fb77fb7f002b2ed1fb681b784e
:100fec00042b12d07b6823f07044fb6803f1500291
:100ffc00bb689b0003f4fe7313441846fff758f9c3
:10100c00034603f0704323437b60fb6803f15002fb
:10101c00bb689b0003f4fe73134479681846fff712
:10102c0044fafb6801221a7108e000bf06e000bf19
:10103c0004e000bf02e000bf00e000bffb7f1846e9
:10104c002437bd4690bd80b58ab000aff860b9605a
:10105c007a60bb68023bbb60fb68db6a023bba6828
:10106c009a4201d30023bb60bb68fb61fb69bb6187
:10107c0000237b61fb685a6cfb691b0b13441946fc
:10108c00f868fff70bfd0346002b02d04ff0ff333f
:10109c0051e0fb69db08c3f308033b62fb6903f017
:1010ac000703012202fa03f387f82730fa683b6a38
:1010bc00134450331a7897f827301340fb7497f881
:1010cc0027305b0087f82730fb690133fb61fb6835
:1010dc00db6a023bfa699a4207d30023fb610023c7
:1010ec0087f827304ff400733b62fb7c002b09d14f
:1010fc007b6901337b617a697b689a4206d1bb6953
:10110c00023318e0fb69bb6100237b61fa69bb68a1
:10111c009a4201d100230ee097f82730002bc5d15d
:10112c00012387f827303b6a01333b623b6ab3f5f6
:10113c00007fbbd39ee718462837bd4680bd80b5df
:10114c0088b000aff860b9607a603b60bb68023b66
:10115c00bb60fb685a6cbb681b0b13447b61bb68a0
:10116c00db08c3f30803bb61bb6803f00703012270
:10117c0002fa03f3fb777b695a1c7a611946f8680b
:10118c00fff78cfc0346002b01d001233de0fa68ed
:10119c00bb69134450331a78fb7f1340dbb2002b2e
:1011ac0014bf01230023dbb21a463b68934201d1e2
:1011bc0002232ae0fa68bb69134450331a78fb7f88
:1011cc005340d9b2fa68bb69134450330a461a70bb
:1011dc00fb6801221a717b68013b7b607b68002bea
:1011ec0001d1002311e0fb7f5b00fb77fb7f002b21
:1011fc00cdd10123fb77bb690133bb61bb69b3f56f
:10120c00007fc4d30023bb61b5e718462037bd4629
:10121c0080bd80b586b000af78607b68db79032b2e
:10122c0021d17b689b687b617b689b693b6114e087
:10123c007b6818687b6901331a467969fff70ffee2
:10124c000346fb73fb7b002b01d0fb7b0ce07b6923
:10125c0001337b613b69013b3b613b69002be7d16f
:10126c007b680022da71002318461837bd4680bd12
:10127c0080b586b000aff860b9607a6020e0fb689a
:10128c001868fb68db69ba68d31a591cfb68db6900
:10129c00012b05d9fb68db69ba68d31a023300e06d
:1012ac007b681a46fff7dbfd0346fb75fb7d002bc5
:1012bc0001d0fb7d09e0fb68db695a1efb68da6133
:1012cc00fb68db69002bdad1002318461837bd46c2
:1012dc0080bd80b58ab000aff860b9607a60002339
:1012ec00fb77fb681b68bb61bb687b62bb683b62be
:1012fc00bb68012b04d9bb69db6aba689a4201d37b
:10130c000223c4e07b68002b14d0bb691b78042b30
:10131c0003d1fb68db79022b0cd04ff0ff327968dc
:10132c00b869fff79cfd0346fb77fb7f002b01d0d0
:10133c00fb7face0b968f868fff76bfc78617b6900
:10134c00002b55d07b69012b01d102239fe07b69d7
:10135c00b3f1ff3f01d1012399e0bb691b78042b4a
:10136c000bd00022b968b869fff779fd0346fb770b
:10137c00fb7f002b01d0fb7f89e0bb699a69bb69bd
:10138c00db6a023b9a420bd2bb699b695a1cbb6954
:10139c009a61bb695b7943f00103dab2bb695a719c
:1013ac003b6a01337a699a4202d17b693b6217e04e
:1013bc00bb691b78042b0fd13a6a7b6ad31a5a1c6f
:1013cc000023796ab869fff7bafe0346fb77fb7f07
:1013dc00002b01d0fb7f5ae07b693b623b6a7b624e
:1013ec007b69bb60bb69db6aba689a42a2d300e036
:1013fc0000bfbb691b78042b48d17b68002b03d141
:10140c00fb680022da7141e0fb68db79002b29d103
:10141c00fb689b68bb6017e0b968f868fff7f9fbdd
:10142c0078617b69012b01d8022330e07b69b3f131
:10143c00ff3f01d101232ae0bb6801337a699a424c
:10144c0007d1bb680133bb60ba687b689a42e3d1b1
:10145c0000e000bfba687b689a4217d1fb68022291
:10146c00da7113e0fb68db79032b0fd1fb689b6807
:10147c007a689a420ad3fb689a68fb689b691344a2
:10148c007a689a4202d8fb680222da710023184665
:10149c002837bd4680bd80b588b000af7860396014
:1014ac007b681b683b613b68002b0dd13b695b691a
:1014bc00bb61bb69002b04d03b69db6aba699a42f9
:1014cc001bd30123bb6118e039687868fff7a1fbd7
:1014dc00f860fb68012b01d8012313e1fb68b3f121
:1014ec00ff3f01d1fb680de13b69db6afa689a4268
:1014fc0001d2fb6806e13b68bb613b699b69002b31
:10150c0001d10023fee03b691b78042b65d101223d
:10151c00b9693869fff797fdf861fb69002b03d0b7
:10152c00fb69b3f1ff3f01d1fb69ebe00123012221
:10153c00f9693869fff703fe0346fb75fb7d022b47
:10154c0001d10123dee0fb7d012b02d14ff0ff33f3
:10155c00d8e03b68002b03d17b680222da7111e0e2
:10156c007b68db79022b0dd1bb690133fa699a4296
:10157c0008d07b689b68ba69d21a7b689a617b68d1
:10158c000322da717b68db79022b00f098803b68d0
:10159c000133fa699a420bd17b68db69002b03d0cb
:1015ac007b68db69013300e002237a68d36186e053
:1015bc007b68db69002b02d17b680122da61fa6956
:1015cc0039687868fff754fe0346fb75fb7d002bea
:1015dc0075d17b680122da6171e00023fb61ba6985
:1015ec003b689a4229d1bb690133fb613b69db6ad9
:1015fc00fa699a4201d30223fb61f9697868fff713
:10160c0008fbf860fb68012b03d0fb68b3f1ff3fcc
:10161c0001d1fb6876e0fb68002b0ed03b695b695f
:10162c00fb60fb68012b06d93b69db6afa689a42be
:10163c0001d2fb68bb610023fb61fb69002b29d144
:10164c00bb69fb61fb690133fb613b69db6afa69ce
:10165c009a4207d30223fb61fa69bb699a4201d90a
:10166c0000234fe0f9697868fff7d3faf860fb685c
:10167c00002b0ed0fb68012b03d0fb68b3f1ff3fae
:10168c0001d1fb683ee0fa69bb699a42dad10023ca
:10169c0038e000bf4ff0ff32f9693869fff7dffb24
:1016ac000346fb75fb7d002b09d13b68002b06d054
:1016bc00fa6939683869fff7d2fb0346fb75fb7d85
:1016cc00002b16d13b69fa695a613b699a693b69ef
:1016dc00db6a023b9a4204d83b699b695a1e3b6900
:1016ec009a613b695b7943f00103dab23b695a7149
:1016fc0007e0fb7d012b02d14ff0ff3300e001230b
:10170c00fb61fb6918462037bd4680bd80b586b0ad
:10171c0000af786039607868fff784f90346002bd6
:10172c0001d0012336e039687868fff753fa386145
:10173c007b683a699a647b6850334ff400720021dd
:10174c0018465cf0bfff7b685033fb600123bb6025
:10175c0000237b6103e07a69bb6813447b617b687f
:10176c005b891a467b6993420bd27b6858783a693d
:10177c007b691a44bb68f96854f077fc0346002b6c
:10178c00e9d07b685b891a467b69934214bf0123bd
:10179c000023dbb218461837bd4680bd80b586b035
:1017ac0000af786039607b681b683b613b691b78d4
:1017bc00042b02d14ff0805201e04ff400123b6831
:1017cc009a4204d93b6803f01f03002b01d002237b
:1017dc0066e07b683a681a637b689b687b617b690f
:1017ec00002b09d13b691b78022b05d93b69db6bbc
:1017fc007b617b680022da717b69002b0cd13b6822
:10180c005b093a691289934201d3022348e03b6990
:10181c00da6b7b689a6329e03b695b895b02fb604e
:10182c0019e07b6879691846fff7f3f978617b69f1
:10183c00b3f1ff3f01d1012332e07b69012b04d9c5
:10184c003b69db6a7a699a4201d3022328e03a6841
:10185c00fb68d31a3b603a68fb689a42e1d279691b
:10186c003869fff7b7f902467b689a637b687a6937
:10187c005a637b689b6b002b01d1022310e07b68c1
:10188c009a6b3b685b0a1a447b689a633b6903f169
:10189c0050023b68c3f308031a447b68da630023e5
:1018ac0018461837bd4680bd80b586b000af78604d
:1018bc0039607b681b683b617b681b6b2033fb606a
:1018cc003b691b78042b02d14ff0805201e04ff49e
:1018dc000012fb689a4202d87b6800229a637b68ec
:1018ec009b6b002b01d104237fe0fb68c3f308033f
:1018fc00002b6dd17b689b6b5a1c7b689a637b6851
:10190c005b6b002b0ad1fb685b093a691289934225
:10191c005ed37b6800229a63042366e0fb685b0a53
:10192c003a695289013a1340002b51d17a687b688d
:10193c005b6b19461046fff76cf978617b69012bdc
:10194c0001d8022351e07b69b3f1ff3f01d10123a0
:10195c004be03b69db6a7a699a422fd33b68002bd8
:10196c0004d17b6800229a6304233ee07a687b688a
:10197c005b6b19461046fff78efd78617b69002b77
:10198c0001d1072331e07b69012b01d102232ce02b
:10199c007b69b3f1ff3f01d1012326e079693869f6
:1019ac00fff7b4fe0346002b01d001231de07b683a
:1019bc00db7943f00403dab27b68da717b687a690d
:1019cc005a6379693869fff705f902467b689a63af
:1019dc007b68fa681a633b6903f15002fb68c3f336
:1019ec0008031a447b68da63002318461837bd468f
:1019fc0080bd80b586b000af786039607b681b68ad
:101a0c00fb6000217868fff7c9fe0346fb75fb7d80
:101a1c00002b40d100233b617b689b6b1946f86817
:101a2c00fff73cf80346fb75fb7d002b32d1fb68be
:101a3c001b78042b08d17b68db6b1b785bb2db4318
:101a4c00dbb2db09dbb20fe07b68db6b1b78e52bd1
:101a5c0004d07b68db6b1b78002b01d1012300e0e9
:101a6c00002303f00103dbb2002b07d03b690133e9
:101a7c003b613a693b689a4202d10ce000233b611e
:101a8c0001217868fff710ff0346fb75fb7d002be7
:101a9c00c2d000e000bffb7d042b01d10723fb75f6
:101aac00fb7d18461837bd4680bd80b584b000afad
:101abc00786039603b681a331846fef7e1fb034641
:101acc00fb607b681b78032b09d13b6814331846e9
:101adc00fef7d6fb03461b04fa681343fb60fb6856
:101aec0018461037bd4680bd80b584b000aff86095
:101afc00b9607a60bb681a337a6892b2114618469c
:101b0c00fef7b8fcfb681b78032b09d1bb6803f10b
:101b1c0014027b681b0c9bb219461046fef7aafcfc
:101b2c0000bf1037bd4680bd90b587b000af786060
:101b3c0039603b681a331846fef7a2fb0346002bac
:101b4c0001d0002358e03b681b7803f03f035a1e7a
:101b5c0013465b0013449b0013447b610123fb8100
:101b6c0000233b6132e0264a3b6913441b781a463a
:101b7c003b6813441846fef783fb0346bb81fb8985
:101b8c00002b19d07b69ff2b11d8bb89184656f056
:101b9c00c1fa04467b695a1c7a615b007a6813446b
:101bac001b88184656f0b6fa03469c4201d0002317
:101bbc0022e0bb89fb8106e0bb894ff6ff729342a2
:101bcc0001d0002318e03b6901333b613b690c2bce
:101bdc00c9d93b681b7803f04003002b0bd0fb8961
:101bec00002b08d07b695b007a6813441b88002ba0
:101bfc0001d0002300e0012318461c37bd4690bde0
:101c0c00b8a9050080b586b000af786039603b6834
:101c1c001a331846fef734fb0346002b01d0002381
:101c2c0050e03b681b7823f040035a1e13465b00c0
:101c3c0013449b0013447b610123fb8100233b6114
:101c4c0028e0224a3b6913441b781a463b6813442c
:101c5c001846fef715fb0346bb81fb89002b0fd002
:101c6c007b69ff2b01d900232ce0bb89fb817b69ad
:101c7c005a1c7a615b007a681344fa891a8006e070
:101c8c00bb894ff6ff72934201d000231ae03b69e7
:101c9c0001333b613b690c2bd3d93b681b7803f0b8
:101cac004003002b0dd0fb89002b0ad07b69ff2b46
:101cbc0001d9002306e07b695b007a68134400229b
:101ccc001a80012318461837bd4680bdb8a90500f7
:101cdc0080b588b000aff860b96011461a460b4663
:101cec00fb711346bb71bb680d33ba791a70bb68b4
:101cfc000b330f221a70bb680c3300221a70bb68ae
:101d0c001a3300211846fef7b5fbfb795a1e134611
:101d1c005b0013449b001344fb610023fb820023f4
:101d2c00bb61fb8a4ff6ff72934207d0fb695a1cca
:101d3c00fa615b00fa6813441b88fb82174abb6983
:101d4c0013441b781a46bb681344fa8a114618468a
:101d5c00fef790fbfb8a002b02d14ff6ff73fb8240
:101d6c00bb690133bb61bb690c2bdad9fb8a4ff61b
:101d7c00ff72934206d0fb695b00fa6813441b8820
:101d8c00002b03d1fb7943f04003fb71bb68fa795c
:101d9c001a7000bf2037bd4680bd00bfb8a9050032
:101dac0080b58cb000aff860b9607a603b600b22f4
:101dbc00b968f8685cf022fc3b68052b2bd93b68b2
:101dcc00fb6122e07b689a1c7a601b887b84002371
:101ddc00bb6217e0fb695a007b8c03f001031344d0
:101dec00fb617b8c5b087b84fb6903f48033002be9
:101dfc0005d0fb6983f4883383f02103fb61bb6a54
:101e0c000133bb62bb6a0f2be4d97b681b88002ba8
:101e1c00d8d1fb693b600723bb623b68dbb203f0a4
:101e2c000f03dbb2303387f82f303b681b093b6064
:101e3c0097f82f30392b04d997f82f30073387f8c0
:101e4c002f30bb6a5a1eba6207f13002134497f85e
:101e5c002f2003f81c2cbb6a002b02d03b68002bf4
:101e6c00dbd107f11402bb6a13447e221a700023e3
:101e7c007b6214e0fa687b6a13441b781846fef701
:101e8c00c7fb0346002b07d0bb6a013b7a6a9a4218
:101e9c0010d07b6a01337b627b6a01337b627a6a86
:101eac00bb6a9a4207d2fa687b6a13441b78202bd0
:101ebc00e0d100e000bfbb6a072b08d8bb6a5a1cf4
:101ecc00ba6207f13002134413f81c1c00e0202105
:101edc007b6a5a1c7a62fa6813440a461a707b6a47
:101eec00072be8d900bf3037bd4680bd80b485b024
:101efc0000af78600023fb730b23bb60fb7bdab273
:101f0c005208db011343dab27b68591c79601b78e9
:101f1c001344fb73bb68013bbb60bb68002bedd16a
:101f2c00fb7b18461437bd465df8047b704780b4c4
:101f3c0087b000af78607b6801331b7801335b019d
:101f4c00fb6000237b8200237b6118e07b69022b02
:101f5c0003d17b6901337b610ee07b8adb039ab290
:101f6c007b8a5b089bb213449ab279687b690b44f9
:101f7c001b789bb213447b827b6901337b617a694a
:101f8c00fb689a42e2d37b8a18461c37bd465df843
:101f9c00047b704780b584b000af78600023fb8170
:101fac001fe0bb89184656f0b5f80346bb81fb8988
:101fbc00db039ab2fb895b089bb213449ab2bb89d0
:101fcc00dbb29bb21344fb81fb89db039ab2fb8926
:101fdc005b089bb213449ab2bb891b0a9bb2134495
:101fec00fb817b689a1c7a601b88bb81bb89002ba8
:101ffc00d7d1fb8918461037bd4680bd80b483b05d
:10200c0000af03463960fb713b684fea7302fb7902
:10201c0013443b603b6818460c37bd465df8047ba7
:10202c00704790b587b000af78607b681b681b6900
:10203c00fb607b681a687b689b6b19461046fef741
:10204c002dfd0346fb75fb7d002b01d0fb7da9e02c
:10205c007b68db6b1b78852b01d00223a2e07b68ad
:10206c00db6b20221946f8685cf0c8fafb68013378
:10207c001b7801335b01bb60bb685f2b03d9bb686a
:10208c00b3f5187f01d902238ce000217868fff7a3
:10209c000bfc0346fb75fb7d042b01d10223fb7566
:1020ac00fb7d002b01d0fb7d7ce07b681a687b6894
:1020bc009b6b19461046fef7f1fc0346fb75fb7d46
:1020cc00002b01d0fb7d6de07b68db6b1b78c02b9c
:1020dc0001d0022366e0fb6803f120007b68db6b18
:1020ec00202219465cf08afafb6823331b782c33c8
:1020fc002e4aa2fb0323db085b01ba689a4201d289
:10210c0002234fe040233b6100217868fff7ccfbb2
:10211c000346fb75fb7d042b01d10223fb75fb7d74
:10212c00002b01d0fb7d3de07b681a687b689b6bc4
:10213c0019461046fef7b2fc0346fb75fb7d002bdf
:10214c0001d0fb7d2ee07b68db6b1b78c12b01d0b3
:10215c00022327e03b69b3f5187f08d2fa683b6984
:10216c00d0187b68db6b202219465cf047fa3b6980
:10217c0020333b613a69bb689a42c5d33b69b3f5de
:10218c00187f0ed8f868fff7d2fe03461c46fb6892
:10219c0002331846fef774f803469c4201d0022322
:1021ac0000e0002318461c37bd4690bd89888888fe
:1021bc0090b583b000af786039607b681b693433ad
:1021cc001846fef775f802463b689a607b681b69f7
:1021dc0038331846fef78ff803460c463a68c2e9c6
:1021ec0004347b681b6921331b7803f00203dab2d9
:1021fc003b68da713b680022da6100bf0c37bd46e0
:10220c0090bdf0b585b000af786039603a68116860
:10221c007a6811603a68116a7a6891603a68526a11
:10222c00d1b27a68d1713a68526a11464ff0000205
:10223c006ff0ff054ff0000601ea050302ea060401
:10224c007a68c2e904347b680022da613b689a6ad6
:10225c007b68da647b68db6c19467868fff79efa5a
:10226c000346fb73fb7b002b04d17868fff7d9fe88
:10227c000346fb73fb7b18461437bd46f0bd90b587
:10228c0087b000af78607b681b681b69fb60fb68dc
:10229c009c1cf868fff74bfe034619462046fef7d8
:1022ac00e9f8fb6801331b7801333b617b68db6c1d
:1022bc0019467868fff772fa0346fb7526e07b68cf
:1022cc001a687b689b6b19461046fef7e7fb0346c2
:1022dc00fb75fb7d002b1dd17b68db6b2022f96825
:1022ec0018465cf08bf97b681b6801221a713b69fc
:1022fc00013b3b613b69002b0ed0fb682033fb603c
:10230c0000217868fff7d0fa0346fb75fb7d002ba4
:10231c00d5d002e000bf00e000bffb7d002b02d057
:10232c00fb7d012b01d1fb7d00e0022318461c37fd
:10233c00bd4690bd90b585b000af78603960402245
:10234c00002178685cf0bef97b6885221a707b6886
:10235c002033c0221a704023fb600023fb72fb7aef
:10236c00bb7201233b81fb685a1cfa607a681344e8
:10237c00c1221a70fb685a1cfa607a681344002256
:10238c001a703b89002b0bd0bb7a5b003a68134464
:10239c001b883b813b89002b02d0bb7a0133bb727b
:1023ac007a68fb6813443a8911461846fef762f8be
:1023bc00fb680233fb60fb6803f01f03002be0d1ca
:1023cc00fb7a0133fb72bb7a5b003a6813441b88bf
:1023dc00002bc8d17b682333ba7a1a707b6801331f
:1023ec00fa7a0132d2b21a707b6803f1240438688d
:1023fc00fff7d0fd034619462046fef73bf800bf19
:10240c001437bd4690bd80b586b000af786039609a
:10241c000423fb757b681b683b61ff237b75ff23e3
:10242c003b75a6e07b689b6b19463869fef736fb5b
:10243c000346fb75fb7d002b40f0a1807b68db6bba
:10244c001b78bb75bb7d002b02d10423fb759de073
:10245c003b691b78042b1fd13b68002b03d0bb7d41
:10246c00832b7dd192e0bb7d852b79d17b681a6b58
:10247c007b68da647868fff7d4fd0346fb75fb7d57
:10248c00002b7ed13b691b6904331b7803f03f039f
:10249c00dab27b689a7174e07b68db6b0b331b7868
:1024ac0003f03f03fb737b68fa7b9a71bb7de52bd2
:1024bc000ed0bb7d2e2b0bd0fb7b23f02003082be7
:1024cc000cbf01230023dbb21a463b68934202d0b7
:1024dc00ff237b7544e0fb7b0f2b2fd1bb7d03f0df
:1024ec004003002b0dd07b68db6b5b7b3b75bb7dae
:1024fc0023f04003bb75bb7d7b757b681a6b7b68d7
:10250c00da64ba7d7b7d9a4215d17b68db6b0d3327
:10251c001b783a7d9a420ed13b69da687b68db6b9b
:10252c0019461046fff76efb0346002b03d07b7d4c
:10253c00013bdbb200e0ff237b7511e07b7d002bc0
:10254c0009d17b68db6b1846fff7d0fc03461a46b3
:10255c003b7d934217d07b684ff0ff32da6412e078
:10256c0000217868fff7a0f90346fb75fb7d002b73
:10257c000bd17b689b6b002b7ff454af06e000bf44
:10258c0004e000bf02e000bf00e000bffb7d002bb9
:10259c0002d07b6800229a63fb7d18461837bd4633
:1025ac0080bd90b589b000af78607b681b68fb601c
:1025bc0000217868fff7f2f80346fb77fb7f002bce
:1025cc0001d0fb7f11e1fb681b78042b63d1fb6806
:1025dc00db681846fff7defc03467b814ee0fb68a8
:1025ec001b6924331846fdf74bfe03461a467b89bc
:1025fc00934200d042e0fb681b6993f82330fb76d2
:10260c0040237b6100233b6128e07b6903f01f03bf
:10261c00002b02d17b6902337b61fb681a697b69f1
:10262c0013441846fdf72cfe0346184655f072fd70
:10263c000446fb68da683b695b0013441b88184648
:10264c0055f068fd03469c420cd1fb7e013bfb76aa
:10265c007b6902337b613b6901333b61fb7e002b61
:10266c00d3d100e000bffb7e002b07d1fb68da68fa
:10267c003b695b0013441b88002b09d00021786850
:10268c00fff7c1fe0346fb77fb7f002ba7d000e0d2
:10269c0000bffb7fa9e0ff233b773b7f7b777b6809
:1026ac004ff0ff32da647b689b6b1946f868fef7d3
:1026bc00f5f90346fb77fb7f002b40f090807b689d
:1026cc00db6b1b78bb77bb7f002b02d10423fb7722
:1026dc008ae07b68db6b0b331b7803f03f037b7268
:1026ec007b687a7a9a71bb7fe52b07d07b7a03f0f3
:1026fc000803002b09d07b7a0f2b06d0ff237b77a6
:10270c007b684ff0ff32da645ee07b7a0f2b36d1b8
:10271c007b6893f84b3003f04003002b54d1bb7f04
:10272c0003f04003002b0dd07b68db6b5b7b3b77ae
:10273c00bb7f23f04003bb77bb7f7b777b681a6b37
:10274c007b68da64ba7f7b7f9a4215d17b68db6b3e
:10275c000d331b783a7f9a420ed1fb68da687b689e
:10276c00db6b19461046fff7dff90346002b03d04d
:10277c007b7f013bdbb200e0ff237b7724e07b7f98
:10278c00002b09d17b68db6b1846fff7affb0346c8
:10279c001a463b7f934224d07b6893f84b3003f06e
:1027ac000103002b0ad17b68d86b7b6840330b226a
:1027bc0019465bf015ff0346002b14d0ff237b77e3
:1027cc007b684ff0ff32da6400217868fff76cf811
:1027dc000346fb77fb7f002b3ff465af04e000bfa3
:1027ec0002e000bf00e000bffb7f18462437bd4667
:1027fc0090bdf0b5a1b000af78607b681b68fb663c
:10280c007b6893f84b3003f0a003002b01d0062318
:10281c0098e100237b6702e07b6f01337b67fb6ee3
:10282c00da687b6f5b0013441b88002bf4d1fb6ec2
:10283c001b78042b40f0aa807b6f0e33a74aa2fbb7
:10284c000323db0802333b67396f7868fff7d1f855
:10285c00034687f87f3097f87f30002b02d097f82b
:10286c007f306fe17b681a6b3b6f03f10063013bb8
:10287c005b01d21a7b68da647b68db7903f00403b2
:10288c00002b79d07b68db7923f00403dab27b6808
:10289c00da717b681846fef7bcfc034687f87f307c
:1028ac0097f87f30002b02d097f87f304ae1786898
:1028bc007b685b6b4ff0ff321946fef7d9fc034681
:1028cc0087f87f3097f87f30002b02d097f87f3055
:1028dc0038e17b689b68002b4ed07a6807f10803bf
:1028ec0011461846fff78dfc034687f87f3097f8a2
:1028fc007f30002b02d097f87f3023e17b68d3e93f
:10290c000412fb6e5b895b024ff00004cd1842eba6
:10291c0004067b68c3e90456fb6e1b6903f138019e
:10292c007b68d3e904341a4623460846fdf7e9fdd3
:10293c00fb6e1b6903f128017b68d3e904341a464a
:10294c0023460846fdf7ddfd7b68da79fb6e1b69d3
:10295c00213342f00102d2b21a7007f10803184673
:10296c00fff78dfc034687f87f3097f87f30002bfc
:10297c0002d097f87f30e5e0fb6e1a69fb6edb68de
:10298c0019461046fff7d6fc0023dbe07b6803f109
:10299c00400207f15c0310685168926807c397f80e
:1029ac00673003f00103002b33d07b68402283f89f
:1029bc004b200123bb6716e07b6803f14000fb6ee4
:1029cc00da6807f15c01bb6ffff7eaf97868fff78b
:1029dc00e8fd034687f87f3097f87f30002b06d14f
:1029ec00bb6f0133bb67bb6f632be5d900e000bf46
:1029fc00bb6f642b01d10723a4e097f87f30042b25
:102a0c0002d097f87f309de097f867207b6883f8b9
:102a1c004b2097f8673003f00203002b07d07b6f35
:102a2c000c332f4aa2fb03239b08013300e0012344
:102a3c003b67396f7868fef7dcff034687f87f3019
:102a4c0097f87f30002b4ed13b6f013b3b673b6fc0
:102a5c00002b48d07b681a6b3b6f5b01d31a19466d
:102a6c007868fef79bfe034687f87f3097f87f3037
:102a7c00002b38d17b6840331846fff737fa0346f2
:102a8c0087f86b307b689b6b1946f86efef706f87f
:102a9c00034687f87f3097f87f30002b22d1fb6eee
:102aac00d8687b68d96b3b6fdab297f86b30fff75d
:102abc000ff9fb6e01221a7100217868fef7f4fe03
:102acc00034687f87f3097f87f30002b0bd13b6f94
:102adc00013b3b673b6f002bd4d104e0898888888d
:102aec004fecc44e00bf97f87f30002b28d17b6889
:102afc009b6b1946f86efdf7d1ff034687f87f30c4
:102b0c0097f87f30002b1bd17b68db6b20220021d8
:102b1c0018465bf0d7fd7b68d86b7b6840330b2283
:102b2c0019465bf06bfd7b6893f84b207b68db6b85
:102b3c000c3302f01802d2b21a70fb6e01221a7119
:102b4c0097f87f3018468437bd46f0bd80b586b007
:102b5c0000af78607b681b683b617b681b6bfb601c
:102b6c007b68db6cb3f1ff3f07d07b68db6c1946ed
:102b7c007868fef713fe034600e00023fb75fb7d2f
:102b8c00002b36d17b689b6b19463869fdf786ffa5
:102b9c000346fb75fb7d002b23d13b691b78042b73
:102bac0009d17b68db6b1a787b68db6b02f07f02e8
:102bbc00d2b21a7003e07b68db6be5221a703b69ba
:102bcc0001221a717b681b6bfa689a420bd900219f
:102bdc007868fef769fe0346fb75fb7d002bd1d0b0
:102bec0002e000bf00e000bffb7d042b01d10223fb
:102bfc00fb75fb7d18461837bd4680bd90b58bb074
:102c0c0000af786039607b681b683b613b680022d1
:102c1c009a767b689b6b002b00f0b4813b691b7828
:102c2c00042b40f0a68000237b6140237b620023b1
:102c3c003b6200237b8348e07b6ab3f5187f02d3a9
:102c4c0000233b6249e07b6a03f01f03002b02d197
:102c5c007b6a02337b623b691a697b6a13441846b0
:102c6c00fdf70efb0346bb837b6a02337b627b69f9
:102c7c0001337b617b8b002b0ad1bb8bb3f5584f97
:102c8c0006d3bb8bb3f5604f02d2bb8b7b831ce0ae
:102c9c007b8b1a04bb8b42ea03003b6a18333a68fd
:102cac001344991c3b6ac3f1ff031a46fdf717fd49
:102cbc00f860fb68002b02d100233b620de03a6afe
:102ccc00fb6813443b6200237b833b691b69233302
:102cdc001b781a467b699342aed37b8b002b01d0b9
:102cec0000233b623b6a002b06d13b6a5a1c3a62ba
:102cfc003a6813443f229a763a683b6a13441a3373
:102d0c0000221a703b6800225a733b691b6904331a
:102d1c001b7803f03703dab23b681a733b681b7bf2
:102d2c0003f01003002b08d13b691b69383318469c
:102d3c00fdf7e1fa03460c4603e04ff000034ff0b9
:102d4c0000043a68c2e900343b691b690c3318462d
:102d5c00fdf796fa03461a463b685a813b691b6994
:102d6c000e331846fdf78cfa03461a463b681a8157
:102d7c0009e17b68db6cb3f1ff3f4dd000233b6274
:102d8c003b6a7b6200237b8333e03b69da687b6ab6
:102d9c00591c79625b0013441b88bb837b8b002b13
:102dac000ad1bb8bb3f5584f06d3bb8bb3f5604f31
:102dbc0002d2bb8b7b831ce07b8b1a04bb8b42ea5d
:102dcc0003003b6a18333a681344991c3b6ac3f1fd
:102ddc00ff031a46fdf783fcf860fb68002b02d159
:102dec0000233b620de03a6afb6813443b6200230c
:102dfc007b833b69da687b6a5b0013441b88002b7e
:102e0c00c3d17b8b002b01d000233b623a683b6a19
:102e1c0013441a3300221a7000233b623b6a7b6214
:102e2c0026e07b68da6b7b6a591c796213441b7849
:102e3c00bb83bb8b202b00d11ae0bb8b052b01d1a4
:102e4c00e523bb837b6a092b09d13b6a0b2b06d884
:102e5c003b6a5a1c3a623a6813442e225a733b6af4
:102e6c005a1c3a62ba8bd1b23a6813440a465a7366
:102e7c007b6a0a2bd5d93a683b6a13440d3300227e
:102e8c001a703b689b7e002b52d13b6a002b07d1fa
:102e9c003b6a5a1c3a623a6813443f229a7638e0ed
:102eac0000233b623b6a7b620823fb772ae03a688b
:102ebc007b6a13440d331b78bb83bb8b2e2b01d148
:102ecc001023fb77bb8b402b0ed9bb8b5a2b0bd80b
:102edc007b68db6b0c331a78fb7f1340dbb2002b67
:102eec0002d0bb8b2033bb83bb8bd9b23a683b6a15
:102efc0013441a330a461a707b6a01337b623b6aad
:102f0c0001333b623a687b6a13440d331b78002b08
:102f1c00cdd13a683b6a13441a3300221a707b688d
:102f2c00db6b0c331b78002b02d13b6800225a73ed
:102f3c007b68db6b0b331b7803f03f03dab23b6827
:102f4c001a737b68db6b1c331846fdf7b1f903462b
:102f5c004ff000043a68c2e900347b68db6b16332f
:102f6c001846fdf78df903461a463b685a817b6873
:102f7c00db6b18331846fdf783f903461a463b689a
:102f8c001a8100e000bf2c37bd4690bd80b58ab0d9
:102f9c0000af786039603b681b68bb607b681b685e
:102fac00db683b6100237b6107f108031846fdf7e2
:102fbc0051fbf860fb68b3f1ff3f01d106230ae235
:102fcc00fb68b3f5803f09d3fb68190c7b695a1c6d
:102fdc007a615b003a6913448ab21a80fb68bb843d
:102fec00bb8c1f2b20d9bb8c2f2b1dd0bb8c5c2bef
:102ffc001ad0bb8c7f2b09d8bb8c1946ab4850f030
:10300c0020f90346002b01d00623e4e17b69fe2b5b
:10301c0001d90623dfe17b695a1c7a615b003a69ae
:10302c001344ba8c1a80bfe7bb8c1f2b06d8042321
:10303c0087f8263014e0bb680133bb60bb681b7893
:10304c002f2bf8d0bb681b785c2bf4d0002387f8af
:10305c002630bb681b781f2b02d8042387f8263038
:10306c00ba683b681a607b69012b09d17b6903f153
:10307c000043013b5b003a6913441b882e2b16d08e
:10308c007b69022b4ed17b6903f10043013b5b0052
:10309c003a6913441b882e2b44d17b6903f10043fe
:1030ac00023b5b003a6913441b882e2b3ad17b6997
:1030bc005b003a69134400221a8000233b620fe044
:1030cc003a6a7b699a4201d22e2100e020217a686b
:1030dc003b6a134440330a461a703b6a01333b6225
:1030ec003b6a0a2becd997f8263043f02003d9b26f
:1030fc007a683b6a134440330a461a7000236ae12b
:10310c007b6903f10043013b5b003a6913441b8864
:10311c00bb84bb8c202b02d0bb8c2e2b06d17b69a5
:10312c00013b7b617b69002bead100e000bf7b692e
:10313c005b003a69134400221a807b69002b01d191
:10314c00062348e10023bb6102e0bb690133bb618c
:10315c00bb695b003a6913441b88202bf5d0bb6913
:10316c00002b06d1bb695b003a6913441b882e2bdc
:10317c0009d197f8263043f0030387f8263002e094
:10318c007b69013b7b617b69002b09d07b6903f177
:10319c000043013b5b003a6913441b882e2befd193
:1031ac007b6840330b22202118465bf08bfa0023fe
:1031bc0087f8273000233b620823fb61bb695a1c4c
:1031cc00ba615b003a6913441b88bb84bb8c002b2f
:1031dc0000f0b780bb8c202b06d0bb8c2e2b0ad1d9
:1031ec00ba697b699a4206d097f8263043f00303fc
:1031fc0087f82630a4e03a6afb699a4203d2ba698e
:10320c007b699a4224d1fb690b2b06d197f82630a7
:10321c0043f0030387f8263096e0ba697b699a423b
:10322c0005d097f8263043f0030387f82630ba69a7
:10323c007b699a4200f287807b69bb6108233b6201
:10324c000b23fb6197f827309b0087f8273077e03a
:10325c00bb8c7f2b18d997f8263043f0020387f8e4
:10326c002630bb8c40f2b511184654f0edfe0346e7
:10327c00bb84bb8c03f08003002b05d0bb8c03f00c
:10328c007f030b4ad35cbb84bb8cff2b1fd9fb6920
:10329c00013b3a6a9a420dd397f8263043f0030368
:1032ac0087f82630fb693b624ae000bf48aa05005c
:1032bc00c8a90500bb8c1b0a99b23b6a5a1c3a621e
:1032cc00c9b27a6813440a4683f840202ee0bb8cbe
:1032dc00002b07d0bb8c194641484ff0b2ff034678
:1032ec00002b08d05f23bb8497f8263043f00303f0
:1032fc0087f826301ae0bb8c402b08d9bb8c5a2b94
:10330c0005d897f8273043f0020387f82730bb8c99
:10331c00602b0bd9bb8c7a2b08d897f8273043f04d
:10332c00010387f82730bb8c203bbb843b6a5a1cbb
:10333c003a62ba8cd1b27a6813440a4683f84020b8
:10334c003ce700bf00e000bf7b6893f84030e52b02
:10335c0003d17b68052283f84020fb69082b04d13c
:10336c0097f827309b0087f8273097f8273003f021
:10337c000c030c2b05d097f8273003f00303032b19
:10338c0005d197f8263043f0020387f8263097f8da
:10339c00263003f00203002b17d197f8273003f0e7
:1033ac000103002b05d097f8263043f0100387f863
:1033bc00263097f8273003f00403002b05d097f83c
:1033cc00263043f0080387f826307b6897f82620d0
:1033dc0083f84b20002318462837bd4680bd00bf1c
:1033ec0054aa050090b59bb000af786039607b683b
:1033fc001b683b663b681b782f2b0bd03b681b78fc
:10340c005c2b07d03b6eda697b689a600de03b68f9
:10341c0001333b603b681b782f2bf8d03b681b7843
:10342c005c2bf4d07b6800229a607b680022da6106
:10343c003b6e1b78042b35d17b689b68002b31d0fd
:10344c003b6e1a6a7b681a623b6e5a6a7b685a62d8
:10345c003b6e9a6a7b689a627a6807f10803114698
:10346c001846fef7cefe034687f8673097f86730ac
:10347c00002b02d097f86730a6e03b6e1b693833ff
:10348c001846fcf715ff03464ff000047a68c2e9b2
:10349c0004343b6e1b6921331b7803f00203dab250
:1034ac007b68da713b681b781f2b0bd87b688022fa
:1034bc0083f84b2000217868fef770f9034687f8f3
:1034cc0067307fe03b4619467868fff75ffd03469f
:1034dc0087f8673097f86730002b6ed17868fff764
:1034ec0060f8034687f867307b6893f84b3087f8b1
:1034fc005f3097f86730002b21d097f86730042b9a
:10350c005dd197f85f3003f02003002b0dd097f8b6
:10351c005f3003f00403002b4dd07b68802283f8ce
:10352c004b20002387f8673049e097f85f3003f0b1
:10353c000403002b43d1052387f867303fe097f84d
:10354c005f3003f00403002b3bd17b689b7903f0c5
:10355c001003002b03d1052387f8673032e03b6e54
:10356c001b78042b17d17b689a687b681a627b687e
:10357c00d3e9043423f0ff037a68d2791a437b68c9
:10358c005a627b68da6c7b689a627b681946386e83
:10359c00fef70efe96e73b6e03f150027b681b6b49
:1035ac00c3f3080313441946386efef77efa02463d
:1035bc007b689a6086e700bf84e700bf02e000bf2b
:1035cc0000e000bf97f8673018466c37bd4690bdd9
:1035dc0080b489b000af78604ff0ff337b617b68bb
:1035ec001b683b613b69fb613b69002b01d17b692b
:1035fc002ee0fb695a1cfa611b78fb73fb7b1f2bbb
:10360c0002d9fb7b3a2bf4d1fb7b3a2b1cd1012347
:10361c00bb613b691b782f2b0cd93b691b78392b71
:10362c0008d83b690233fa699a4203d13b691b788b
:10363c00303bbb61bb69002b04dcbb697b617b68e5
:10364c00fa691a607b6903e0044b1b787b617b6928
:10365c0018462437bd465df8047b704712300220b3
:10366c0080b584b000af786039607b6800221a7135
:10367c007b684ff0ff329a6439687868fdf70efa70
:10368c000346002b01d0042399e07b68503303f5eb
:10369c00ff731846fcf7f4fd0346fb81fb894af6e1
:1036ac00552293420bd17b6850330b224649184666
:1036bc005af096ff0346002b01d101237fe07b6873
:1036cc0093f850307b737b7beb2b05d07b7be92b0a
:1036dc0002d07b7be82b6ad1fb894af655229342b8
:1036ec000cd17b68503352330822384918465af0b3
:1036fc0077ff0346002b01d1002360e07b68503339
:10370c000b331846fcf7bcfd03467b817b6893f8b2
:10371c005d307b737a897b89013b1340002b46d14a
:10372c007b89b3f5007f42d37b89b3f5007f3ed80c
:10373c007b7b002b3bd07a7b7b7b013b1340002bac
:10374c0035d17b6850330e331846fcf799fd034690
:10375c00002b2cd07b6893f86030013b012b26d8d2
:10376c007b68503311331846fcf78afd0346002b57
:10377c001dd07b68503313331846fcf781fd03468c
:10378c007f2b09d87b68503320331846fcf790fd0b
:10379c000346b3f5803f0ad37b6850331633184683
:1037ac00fcf76efd0346002b01d0002307e0fb89dc
:1037bc004af65522934201d1022300e00323184616
:1037cc001037bd4680bd00bf5caa050068aa050085
:1037dc0080b588b000af7860396000217868fff759
:1037ec003fffb861bb69022b07d0bb69022b02d823
:1037fc003b68002b01d1bb694de03b68042b01d920
:10380c00032348e00023fb6115e07b6803f15002c1
:10381c00fb691b0103f5e37313441846fcf748fde1
:10382c000246fb699b0007f120010b4443f8182c5e
:10383c00fb690133fb61fb69032be6d93b68002b69
:10384c0002d03b68013b00e00023fb61fb699b005d
:10385c0007f12002134453f8183c002b0cd0fb69e1
:10386c009b0007f12002134453f8183c1946786862
:10387c00fff7f6fe034600e00323bb613b68002b19
:10388c0008d1bb69012b05d9fb690133fb61fb69cd
:10389c00032bdbd9bb6918462037bd4680bd2de90b
:1038ac00f04397b000aff860b9601346fb71bb688a
:1038bc0000221a60f868fff78bfeb863bb6b002b15
:1038cc0001da0b2327e3af4abb6b52f823307b633f
:1038dc007b6b002b01d10c231de3bb687a6b1a6048
:1038ec00fb7923f00103fb717b6b1b78002b1ad047
:1038fc007b6b5b78184652f055fb034687f83330e8
:10390c0097f8333003f00103002b0cd1fb79002b1b
:10391c0007d097f8333003f00403002b01d00a23af
:10392c00f9e20023f7e27b6b00221a707b6b5b7869
:10393c00184652f043fb034687f8333097f8333080
:10394c0003f00103002b01d00323e4e2fb79002bed
:10395c0007d097f8333003f00403002b01d00a236f
:10396c00d9e2894abb6b5b0013445b781946786bd0
:10397c00fff72effb864bb6c042b01d10123cae204
:10398c00bb6c012b01d90d23c5e27b6b9b6cfb62dd
:10399c00bb6c012b40f03b810b23fb6302e0fb6b08
:1039ac000133fb63fb6b3f2b06d87a6bfb6b134429
:1039bc0050331b78002bf2d0fb6b3f2b01d80d231f
:1039cc00a9e27b6b503368331846fcf759fc03466d
:1039dc00b3f5807f01d00d239de27b6b93f8bc3057
:1039ec00092b01d00d2396e27b6b503348331846dc
:1039fc00fcf781fc0a460146fb6a4ff0000411eb10
:103a0c00030842eb0409c7e90889d7e90834012cfb
:103a1c0008bf002b01d30d237de27b6b5033543355
:103a2c001846fcf745fc02467b6b1a637b6b93f8dc
:103a3c00be207b6bda707b6bdb78012b01d00d2306
:103a4c0069e27b6b93f8bd301a46012393409ab21e
:103a5c007b6b5a817b6b5b89002b01d10d235ae266
:103a6c007b6b50335c331846fcf722fcf861fb6926
:103a7c00464a934201d90d234de2fb699a1c7b6b9c
:103a8c00da627b6bfa6a5a637b6b50335833184695
:103a9c00fcf70efc0246fb6a1a447b6b1a647b6bc8
:103aac00503350331846fcf703fc0246fb6a1a44a9
:103abc007b6b9a637b6b1b6c19464ff000027b6b24
:103acc005b891846fb6903fb00f34ff00004cd182b
:103adc0042eb0406d7e90834b44208bfab4201d22a
:103aec000d2318e27b6b503360331846fcf7e0fb78
:103afc0002467b6bda630023fb63fb6b7b64fb6b23
:103b0c00002b1cd17b6b5b891a467b6c934201d3d7
:103b1c000d2300e27b6bdb6b1946786bfdf75af8d3
:103b2c0002467b6c13441946786bfcf7b7ff0346cf
:103b3c00002b01d00123eee17b6c01337b647a6bab
:103b4c00fb6b134450331b78812b05d0fb6b20335c
:103b5c00c3f30803fb63d2e700bf7b6b03f1500296
:103b6c00fb6b143313441846fcf7a2fb38643b6c14
:103b7c00012b04d97b6bdb6a3a6c9a4208d30d2378
:103b8c00c9e100bf0c30022050230220fdffff7f53
:103b9c007b6b1a6c7b6b5b8919463b6c023b03fba2
:103bac0001f31a447b6b5a647b6b9a6b3b6cdb099d
:103bbc0013441946786bfcf771ff0346002b01d0b8
:103bcc000123a8e17b6b03f150023b6c03f07f03f4
:103bdc009b0013441846fcf76bfbb861bb69b3f14f
:103bec00ff3f08d03b6c01333b643a6cbb699a4293
:103bfc00dad00d238fe100bf7b6b4ff0ff329a615f
:103c0c007b6b9a697b6b5a610423bb6468e17b6ba9
:103c1c0050330b331846fcf733fb0346b3f5007fe8
:103c2c0001d00d2377e17b6b503316331846fcf72c
:103c3c0027fb03463b653b6d002b06d17b6b50335a
:103c4c0024331846fcf734fb38657b6b3a6d1a63ea
:103c5c007b6b93f860207b6bda707b6bdb78012bd2
:103c6c0005d07b6bdb78022b01d00d2353e17b6bf2
:103c7c00db781a463b6d02fb03f33b657b6b93f8d9
:103c8c005d309ab27b6b5a817b6b5b89002b08d0c1
:103c9c007b6b5b891a467b6b5b89013b1340002b6a
:103cac0001d00d2337e17b6b503311331846fcf7f1
:103cbc00e7fa03461a467b6b1a817b6b1b8903f070
:103ccc000f039bb2002b01d00d2324e17b6b5033ef
:103cdc0013331846fcf7d4fa03467b657b6d002b37
:103cec0006d17b6b503320331846fcf7e1fa78652c
:103cfc007b6b50330e331846fcf7c2fa0346fb823b
:103d0c00fb8a002b01d10d2305e1fa8a3b6d13448c
:103d1c007a6b1289120992b213443b617a6d3b693a
:103d2c009a4201d20d23f6e07a6d3b69d31a7a6b75
:103d3c005289b3fbf2f3fb61fb69002b01d10d231c
:103d4c00e9e00023bb64fb69754a934201d8032365
:103d5c00bb64fb694ff6f572934201d80223bb6436
:103d6c00fb6940f6f572934201d80123bb64bb6c2e
:103d7c00002b01d10d23cee0fb699a1c7b6bda6220
:103d8c007b6bfa6a5a63fa8afb6a1a447b6b9a63f6
:103d9c00fa6a3b691a447b6b1a64bb6c032b1ed109
:103dac007b6b50332a331846fcf76afa0346002b18
:103dbc0001d00d23afe07b6b1b89002b01d00d23b1
:103dcc00a9e07b6b50332c331846fcf771fa024692
:103ddc007b6bda637b6bdb6a9b00fb641ee07b6bab
:103dec001b89002b01d10d2395e07b6b9a6b3b6dee
:103dfc001a447b6bda63bb6c022b03d17b6bdb6ae3
:103e0c005b000ae07b6bda6a13465b0013445a08ca
:103e1c007b6bdb6a03f001031344fb647b6b1a6b53
:103e2c00fb6c03f2ff135b0a9a4201d20d2372e082
:103e3c007b6b4ff0ff329a617b6b9a697b6b5a619b
:103e4c007b6b80225a71bb6c032b49d17b6b50333b
:103e5c0030331846fcf714fa0346012b40d1fb6aa9
:103e6c0001331946786bfcf719fe0346002b37d14a
:103e7c007b6b00225a717b6b503303f5ff73184632
:103e8c00fcf7fef903461a464af655239a4227d107
:103e9c007b6b50331846fcf70bfa0246214b9a42c7
:103eac001ed17b6b503303f5f2731846fcf700fa06
:103ebc0002461d4b9a4213d17b6b503303f5f473be
:103ecc001846fcf7f5f902467b6b9a617b6b503315
:103edc0003f5f6731846fcf7ebf902467b6b5a6157
:103eec00bb6cdab27b6b1a70104b1b8801339ab225
:103efc000e4b1a800d4b1a887b6bda807b6b0c4a4d
:103f0c00da607b6b0b4a1a617b6b0022da61786b8f
:103f1c00fcf764fd002318465c37bd46bde8f08312
:103f2c00f5ffff0f52526141727241611030022055
:103f3c00943202203430022080b584b000af786017
:103f4c0039600923fb737b68002b1cd07b681b68d2
:103f5c00002b18d07b681b681b78002b13d07b6858
:103f6c009a887b681b68db889a420cd17b681b683b
:103f7c005b78184652f016f8034603f00103002b49
:103f8c0001d10023fb73fb7b002b02d17b681b68e8
:103f9c0000e000233a681360fb7b18461037bd46df
:103fac0080bd80b588b000aff860b9601346fb7176
:103fbc00bb683b6107f110031846fff709fbf8617a
:103fcc00fb69002b01da0b2333e01c4afb6952f826
:103fdc002330bb61bb69002b0ad0184afb69002156
:103fec0042f82310b869fcf7f9fcbb6900221a707f
:103ffc00fb68002b0dd0fb681149fa6911f81220ef
:10400c005a70fb6800221a70fa680c49fb6941f877
:10401c002320fb79002b01d100230ae007f10c01ce
:10402c0007f1080300221846fff739fc0346fb751d
:10403c00fb7d18462037bd4680bd00bf0c300220ea
:10404c00502302202de9f043a3b000aff860b96013
:10405c001346fb71fb68002b01d1092356e2fb7957
:10406c0003f03f03fb71fa7907f1140107f1080320
:10407c001846fff714fc034687f8873097f887300b
:10408c00002b40f03a827b69bb61ba6807f11803d8
:10409c0011461846fff7a6f9034687f8873097f8bc
:1040ac008730002b1ad197f863305bb2002b03da00
:1040bc00062387f8873011e0fb7923f00103002bee
:1040cc0014bf01230023dbb21a4607f11803114673
:1040dc001846fcf73cfb034687f88730fb7903f066
:1040ec001c03002b00f0d48097f88730002b17d0de
:1040fc0097f88730042b0ed1fcf784fb0346002b7a
:10410c0006d007f118031846fef773fb034600e0d0
:10411c00122387f88730fb7943f00803fb7110e01a
:10412c00bb7f03f01103002b03d0072387f88730e4
:10413c0007e0fb7903f00403002b02d0082387f877
:10414c00873097f88730002b40f0bc80fb7903f068
:10415c000803002b00f0b6807b691b78042b4dd133
:10416c007a69fb681a607b69fa6811461846fef793
:10417c001ff87b691b6902331e22002118465af076
:10418c00a1fa7b691b6926331a22002118465af0c2
:10419c0099fa7b691b69043320221a707b691b69ad
:1041ac0003f1080451f0cdff034619462046fcf7f5
:1041bc007cf97b691b69213301221a7007f1180302
:1041cc001846fef75cf8034687f8873097f8873077
:1041dc00002b77d1fb689b68002b73d0f868fb68c9
:1041ec009b6800221946fdf774f8034687f8873060
:1041fc00fb689a687b69013a5a6163e051f0a1ff50
:10420c0078677b6d0e33796f1846fcf74ef97b6d32
:10421c001633796f1846fcf748f97b697a6d1146ad
:10422c001846fdf742fc38677b6d0b3320221a7061
:10423c007b69796d00221846fdf756fc7b6d1c33ab
:10424c0000211846fcf731f97b6901221a713b6f8a
:10425c00002b37d07b699b6cfb6607f1180300229f
:10426c00396f1846fdf735f8034687f8873097f80d
:10427c008730002b26d17b69f96e1846fcf70efcb3
:10428c00034687f887307b693a6f013a5a6119e027
:10429c0097f88730002b15d1bb7f03f01003002b50
:1042ac0003d0042387f887300ce0fb7903f002037a
:1042bc00002b07d0bb7f03f00103002b02d0072398
:1042cc0087f8873097f88730002b28d1fb7903f0db
:1042dc000803002b03d0fb7943f04003fb717b698f
:1042ec009a6cfb689a647a6dfb68da64fb7923f04c
:1042fc000103002b14bf01230023dbb21a4607f184
:10430c00180311461846fcf79ffa0246fb68da625e
:10431c00fb68db6a002b02d1022387f8873097f801
:10432c008730002b40f0e9807b691b78042b14d17b
:10433c003a6afb681a62d7e90a3423f0ff03fa7f62
:10434c001a43fb685a627a6efb689a627b69fa6858
:10435c0011461846fdf72cff13e07b697a6d114668
:10436c001846fdf7a2fb0246fb689a607b6d1c3376
:10437c001846fbf79dff03464ff00004fa68c2e9ac
:10438c0004347a69fb681a607b69da88fb689a8066
:10439c00fb68fa7983f83020fb68002283f831201f
:1043ac00fb6800225a64fa684ff000034ff00004d7
:1043bc00c2e90e34fb6850334ff4007200211846ea
:1043cc005af080f9fb7903f02003002b00f0958064
:1043dc00fb68d3e90434234300f08f80fb68d3e9f6
:1043ec000434fa68c2e90e347b695b895b02bb66f4
:1043fc00fb689b68c7f88030fb68d3e90434c7e9d5
:10440c001e3421e0fb68d7f880101846fcf701fc3d
:10441c00c7f88000d7f88030012b02d8022387f828
:10442c008730d7f88030b3f1ff3f02d1012387f8f2
:10443c008730bb6e4ff00004d7e91e12b1eb0308b6
:10444c0062eb0409c7e91e8997f88730002b09d164
:10445c00bb6e19464ff00002d7e91e34a24208bfca
:10446c009942cfd3fb68d7f880201a6497f887302d
:10447c00002b39d1d7e91e3440f2ff114ff0000266
:10448c0003ea010504ea020655ea06032cd07b690f
:10449c00d7f880101846fcf79dfbf866fb6e002bd6
:1044ac0003d1022387f887301ee0d7e91e124ff0a4
:1044bc0000034ff000044b0a43eac253540a1a4655
:1044cc00fb6e1a44fb685a647b695878fb6803f1ed
:1044dc005001fb685a6c012351f0b0fd0346002bd0
:1044ec0002d0012387f8873097f88730002b04d04f
:1044fc00fb68db6a1846fcf735fa97f88730002b17
:10450c0002d0fb6800221a6097f8873018468c3767
:10451c00bd46bde8f0832de9f04f91b000aff860d7
:10452c00b9607a603b60bb68fb623b6800221a6032
:10453c00fb6807f1140211461846fff7fdfc034611
:10454c0087f83f3097f83f30002b08d1fb6893f881
:10455c00313087f83f3097f83f30002b02d097f876
:10456c003f303ae1fb6893f8303003f00103002b45
:10457c0001d1072331e1fb68d3e90412fb68d3e9cd
:10458c000e34b1eb030a62eb040bc7e908ab7b6892
:10459c004ff00004d7e90812a24208bf994280f0fc
:1045ac0017813b6a7b6013e1fb68d3e90e3440f260
:1045bc00ff114ff0000203ea010504ea020655ea76
:1045cc00060340f0ce80fb68d3e90e124ff00003d7
:1045dc004ff000044b0a43eac253540a1a467b6953
:1045ec005b89013b1340fb61fb69002b26d1fb6807
:1045fc00d3e90e34234303d1fb689b68bb6307e00c
:10460c00fa68fb681b6c19461046fcf702fbb86392
:10461c00bb6b012b05d8fb68022283f831200223e7
:10462c00dbe0bb6bb3f1ff3f05d1fb68012283f8e4
:10463c0031200123d1e0fb68ba6b1a647a69fb68fc
:10464c001b6c19461046fcf7c5fab861bb69002b08
:10465c0005d1fb68022283f831200223bde0ba6940
:10466c00fb691344bb617b685b0a3b633b6b002bb0
:10467c003bd0fa693b6b13447a695289934205d952
:10468c007b695b891a46fb69d31a3b637b69587853
:10469c003b6bba69f96a51f0d1fc0346002b05d08b
:1046ac00fb68012283f83120012396e0fb6893f824
:1046bc0030305bb2002b14dafb685a6cbb69d31a2e
:1046cc003a6b9a420dd9fb685a6cbb69d31a5b02e0
:1046dc00fa6ad018fb6850334ff40072194659f03f
:1046ec008dff3b6b5b027b6357e0fb685b6cba69cd
:1046fc009a4233d0fb6893f830305bb2002b1bda54
:10470c007b695878fb6803f15001fb685a6c0123f4
:10471c0051f0abfc0346002b05d0fb68012283f85b
:10472c003120012359e0fb6893f8303003f07f030c
:10473c00dab2fb6883f830207b695878fb6803f1a8
:10474c0050010123ba6951f079fc0346002b05d0c6
:10475c00fb68012283f8312001233ee0fb68ba6933
:10476c005a64fb68d3e90e34c3f30803c3f5007332
:10477c007b637a6b7b689a4201d97b687b63fb68ad
:10478c0003f15002fb68d3e90e34c3f3080313445e
:10479c007a6b1946f86a59f031ff7a687b6bd31a39
:1047ac007b603b681a687b6b1a443b681a60fa6a38
:1047bc007b6b1344fb62fb68d3e90e127b6b4ff0ef
:1047cc00000411eb030842eb0409fb68c3e90e89f2
:1047dc007b68002b7ff4e8ae002318464437bd46b7
:1047ec00bde8f08f2de9f0438db000aff860b960f3
:1047fc007a603b60bb68fb613b6800221a60fb6817
:10480c0007f1100211461846fff796fb034687f88e
:10481c002f3097f82f30002b08d1fb6893f83130ec
:10482c0087f82f3097f82f30002b02d097f82f30c5
:10483c007de1fb6893f8303003f00203002b01d1cb
:10484c00072374e13b691b78042b00f06081fb6843
:10485c00d3e90e341a467b681a44fb68d3e90e344c
:10486c009a4280f05481fb68d3e90e34db437b60c1
:10487c004de1fb68d3e90e3440f2ff114ff000021a
:10488c0003ea010504ea020655ea060340f0f0804b
:10489c00fb68d3e90e124ff000034ff000044b0af3
:1048ac0043eac253540a1a463b695b89013b1340e5
:1048bc00bb61bb69002b3ad1fb68d3e90e342343af
:1048cc000cd1fb689b68bb62bb6a002b0ed1fb68ea
:1048dc0000211846fcf7dffdb86207e0fa68fb68b8
:1048ec001b6c19461046fcf7d6fdb862bb6a002b50
:1048fc0000f01281bb6a012b05d1fb68022283f800
:10490c003120022313e1bb6ab3f1ff3f05d1fb68f1
:10491c00012283f83120012309e1fb68ba6a1a6489
:10492c00fb689b68002b02d1fb68ba6a9a60fb6833
:10493c0093f830305bb2002b1bda3b695878fb687c
:10494c0003f15001fb685a6c012351f08efb0346b6
:10495c00002b05d0fb68012283f831200123e6e00f
:10496c00fb6893f8303003f07f03dab2fb6883f80e
:10497c0030203a69fb681b6c19461046fcf72af983
:10498c0078617b69002b05d1fb68022283f831200a
:10499c000223cce07a69bb6913447b617b685b0ab8
:1049ac003b623b6a002b3fd0ba693b6a13443a69bd
:1049bc005289934205d93b695b891a46bb69d31a64
:1049cc003b623b6958783b6a7a69f96951f04dfb57
:1049dc000346002b05d0fb68012283f8312001230c
:1049ec00a5e0fb685a6c7b69d31a3a6a9a4217d9cc
:1049fc00fb6803f15000fb685a6c7b69d31a5b02ad
:104a0c00fa6913444ff40072194659f0f7fdfb682c
:104a1c0093f8303003f07f03dab2fb6883f8302070
:104a2c003b6a5b027b6248e0fb685b6c7a699a428a
:104a3c001bd0fb68d3e90e12fb68d3e90434a24205
:104a4c0008bf994211d23b695878fb6803f15001b9
:104a5c0001237a6951f0f2fa0346002b05d0fb686a
:104a6c00012283f83120012361e0fb687a695a64e2
:104a7c00fb68d3e90e34c3f30803c3f500737b6200
:104a8c007a6a7b689a4201d97b687b62fb6803f186
:104a9c005002fb68d3e90e34c3f3080313447a6a5b
:104aac00f969184659f0aafdfb6893f8303063f0a9
:104abc007f03dab2fb6883f830207a687b6ad31afa
:104acc007b603b681a687b6a1a443b681a60fa6917
:104adc007b6a1344fb61fb68d3e90e127b6a4ff0cf
:104aec00000411eb030842eb0409fb68c3e90e89cf
:104afc00fb68d3e90434fa68d2e90e12944208bf79
:104b0c008b4201d20b461446fa68c2e904347b6826
:104b1c00002b7ff4aeae00e000bffb6893f83030a2
:104b2c0043f04003dab2fb6883f8302000231846c8
:104b3c003437bd46bde8f08390b59bb000af7860cc
:104b4c007b6807f1580211461846fff7f5f9034642
:104b5c0087f8673097f86730002b40f009817b6845
:104b6c0093f8303003f04003002b00f001817b6898
:104b7c0093f830305bb2002b17dabb6d58787b683a
:104b8c0003f150017b685a6c012351f06efa034615
:104b9c00002b01d00123ede07b6893f8303003f05b
:104bac007f03dab27b6883f8302051f0cafa38669a
:104bbc00bb6d1b78042b40f090807b681846fcf78b
:104bcc0028fb034687f8673097f86730002b0ad12b
:104bdc0078687b681b6c4ff0ff321946fcf748fb7a
:104bec00034687f8673097f86730002b40f0c08099
:104bfc007a6807f1080311461846fdf702fb0346d5
:104c0c0087f8673097f86730002b40f0b180bb6da8
:104c1c001b6904331a78bb6d1b69043342f0200204
:104c2c00d2b21a707b68da79bb6d1b69213342f002
:104c3c000102d2b21a70bb6d1b6903f134027b689e
:104c4c009b6819461046fbf730fcbb6d1b6903f1e2
:104c5c0038017b68d3e904341a4623460846fbf72f
:104c6c0050fcbb6d1b6903f128017b68d3e904344c
:104c7c001a4623460846fbf744fcbb6d1b690c33f4
:104c8c00396e1846fbf711fcbb6d1b6915330022fe
:104c9c001a70bb6d1b69103300211846fbf705fc1d
:104cac0007f108031846fdf7eafa034687f8673060
:104cbc0097f86730002b5bd1bb6d1846fbf71bffd9
:104ccc00034687f867307b6893f8303023f0400355
:104cdc00dab27b6883f830204ae0ba6d7b689b6c53
:104cec0019461046fbf7dafe034687f8673097f84b
:104cfc006730002b3cd17b68db6cfb65fb6d0b33a9
:104d0c001a78fb6d0b3342f02002d2b21a707b681a
:104d1c0018687b689b681a46f96dfcf7e5fefb6d1d
:104d2c0003f11c027b68d3e9043419461046fbf7e7
:104d3c00bcfbfb6d1633396e1846fbf7b6fbfb6def
:104d4c00123300211846fbf795fbbb6d01221a713b
:104d5c00bb6d1846fbf7cffe034687f867307b68c0
:104d6c0093f8303023f04003dab27b6883f83020bc
:104d7c0097f8673018466c37bd4690bd80b584b047
:104d8c0000af78607868fff7d7fe0346fb73fb7bb8
:104d9c00002b18d17b6807f1080211461846fff763
:104dac00cbf80346fb73fb7b002b0cd17b68db6ad7
:104dbc001846fbf7d7fd0346fb73fb7b002b02d198
:104dcc007b6800221a60fb7b18461037bd4680bdfd
:104ddc0080b584b000af78603b1d1846fef7f8fb39
:104dec00f860fb68002b01da0b2304e0fb68dab2f5
:104dfc00034b1a70002318461037bd4680bd00bf08
:104e0c001230022090b59bb000af786007f10c0116
:104e1c003b1d00221846fef742fd034687f867301b
:104e2c0097f86730002b5bd1fb683b617a6807f120
:104e3c00100311461846fef7d5fa034687f867307b
:104e4c0097f86730002b44d197f85b305bb2002b9e
:104e5c0010dafb68ba69da61fb681b78042b38d16d
:104e6c00fb683a6b1a62fb687a6b5a62fb68ba6b26
:104e7c009a622ee0bb7d03f01003002b26d0fb685a
:104e8c001b78042b18d1fb681b693433fc6818465b
:104e9c00fbf70efa0346e361fb68ba691a62d7e9bd
:104eac00083423f0ff02fb7d1946fb680a435a6263
:104ebc00fb68fa6d9a620ce0fb68fa6cfc681146b0
:104ecc001846fcf7f2fd0346e36102e0052387f880
:104edc00673097f86730042b02d1052387f86730c9
:104eec0097f8673018466c37bd4690bd80b5e6b074
:104efc0000af3b1d18603b4619603b1d1b68c7f893
:104f0c0088313b1d1b6800221a7007f596713b1dfa
:104f1c0000221846fef7c3fc034687f8973197f832
:104f2c009731002b40f00d81d7f82c31c7f8303178
:104f3c003b461b68c7f89031d7f82c311b78042bf3
:104f4c0000f0d080d7f82c31db69c7f83831b8e0e5
:104f5c0007f5987320211846fcf720fc034687f8c8
:104f6c00973197f89731002b40f0b580d7f82c315a
:104f7c00d7f8682111461846fbf790fd034687f8d1
:104f8c00973197f89731002b40f0a780d7f82c3148
:104f9c00d7f86c2111461846fcf787fd0346c7f875
:104fac00383107f5987300211846fcf7f7fb0346d8
:104fbc0087f8973197f89731002b40f0908007f5e0
:104fcc00987300211846fdf71efa034687f89731af
:104fdc0097f89731002b1ad1d7f82c31d7f86c21d0
:104fec0011461846fcf761fd0246d7f8843193420e
:104ffc000fd007f5987300211846fcf755fc0346b3
:10500c0087f8973197f89731002bd8d002e000bf82
:10501c0000e000bf97f89731042b02d1022387f8e8
:10502c00973197f89731002b5bd107f1080207f500
:10503c00987311461846fdf7e1fd0023c7f88c3133
:10504c0004e0d7f88c310133c7f88c3107f1080232
:10505c00d7f88c3113441a331b78002bf1d1d7f8c5
:10506c008c310133d7f890219a421ad2112387f848
:10507c00973137e0d7f88c31013bc7f88c313b1da9
:10508c001a68d7f89031013bc7f89031d7f89031b6
:10509c00134407f10801d7f88c210a441a3212780c
:1050ac001a70d7f88c31002be4d13b1d1a68d7f855
:1050bc009031013bc7f89031d7f8903113442f222f
:1050cc001a70d7f83831c7f88431d7f88431002bef
:1050dc007ff43eaf06e000bf04e000bf02e000bf7b
:1050ec0000e000bf97f89731002b2ad13b46d7f848
:1050fc0090211b689a420bd13b1d1a68d7f890314e
:10510c00013bc7f89031d7f8903113442f221a7015
:10511c0097f89731002b14d13b1d1a68d7f89031b2
:10512c00591cc7f890111a44d7f88831591cc7f884
:10513c00881112781a703b46d7f890211b689a4256
:10514c00ead3d7f8883100221a7097f897311846ad
:10515c0007f5cc77bd4680bd2de9f04f9db000af73
:10516c00f864c7e91023fa6c07f15003194610468e
:10517c00fef7e2fe034687f86f3097f86f30002b8e
:10518c0004d1fb6c93f8313087f86f3097f86f309f
:10519c00002b0ed13b6d1b78042b0ad1f86cfb6ce9
:1051ac001b6c4ff0ff321946fcf762f8034687f888
:1051bc006f3097f86f30002b02d097f86f30dbe12f
:1051cc003b6d1b78042b0bd0d7e91034012c08bf96
:1051dc00002b05d34ff0ff334ff00004c7e9103418
:1051ec00fb6cd3e90412d7e91034a24208bf9942f0
:1051fc000bd2fb6c93f8303003f00203002b04d17c
:10520c00fb6cd3e90434c7e91034fb6cd3e90e34de
:10521c00c7e9163400237b66fa6c4ff000034ff09d
:10522c000004c2e90e34d7e91034234300f03c816a
:10523c003b6d5b895b027b65d7e91634234354d005
:10524c00d7e9103413f1ff3544f1ff367b6d4ff085
:10525c0000041a4623462846314659f01ff80346e7
:10526c000c461d462646d7e9163413f1ff32ba63b5
:10527c0044f1ff33fb637b6d4ff000041a46234669
:10528c00d7e90e0159f00af803460c46a64208bfae
:10529c009d422ad3d7e9163413f1ff3a44f1ff3b70
:1052ac007b6d013b4ff000046fea03086fea0409c1
:1052bc000aea08033b630bea09037b63fb6cd7e93f
:1052cc000c12c3e90e12fb6cd3e90e12d7e91034a1
:1052dc00581ab86064eb0203fb60d7e90234c7e9e3
:1052ec001034fb6c1b6cbb6624e0fb6c9b68bb66d0
:1052fc00bb6e002b1bd1fb6c00211846fcf7cbf8c6
:10530c00b866bb6e012b05d1fb6c022283f83120f1
:10531c00022331e1bb6eb3f1ff3f05d1fb6c0122df
:10532c0083f83120012327e1fb6cba6e9a60fb6c89
:10533c00ba6e1a64bb6e002b00f0b6806ee07b6d0b
:10534c004ff00004d7e91012c81a386062eb04035e
:10535c007b60d7e90034c7e91034fb6cd3e90e123b
:10536c007b6d4ff00004c818b86242eb0403fb627b
:10537c00fb6cd7e90a12c3e90e12fb6c93f83030c0
:10538c0003f00203002b28d0fb6cd3e90e34fa6c2b
:10539c00d2e90412a24208bf99420ed2fb6cd3e9a7
:1053ac000e34fa6cc2e90434fb6c93f8303043f0e1
:1053bc004003dab2fb6c83f83020fb6cb96e1846f4
:1053cc00fcf769f8b866bb6e002b0cd14ff00003ec
:1053dc004ff00004c7e910342ae0fb6cb96e184694
:1053ec00fbf717fcb866bb6eb3f1ff3f05d1fb6c46
:1053fc00012283f831200123bee0bb6e012b04d9be
:10540c003b6ddb6aba6e9a4205d3fb6c022283f8c1
:10541c0031200223b0e0fb6cba6e1a647b6d194626
:10542c004ff00002d7e91034a24208bf994286d34c
:10543c00fb6cd3e90e12d7e91034c818386242eb72
:10544c0004037b62fb6cd7e90812c3e90e12d7e99f
:10545c00103440f2ff114ff0000203ea0100b86172
:10546c0004ea0203fb61d7e9063423431cd03b6ded
:10547c00b96e1846fbf7aefb78667b6e002b05d138
:10548c00fb6c022283f83120022375e0d7e910125d
:10549c004ff000034ff000044b0a43eac253540a86
:1054ac001a467b6e13447b66fb6cd3e90e34fa6ca4
:1054bc00d2e90412a24208bf99420ed2fb6cd3e986
:1054cc000e34fa6cc2e90434fb6c93f8303043f0c0
:1054dc004003dab2fb6c83f83020fb6cd3e90e345a
:1054ec0040f2ff114ff0000203ea0100386104eab8
:1054fc0002037b61d7e9043423433bd0fb6c5b6c28
:10550c007a6e9a4236d0fb6c93f830305bb2002b3b
:10551c001bda3b6d5878fb6c03f15001fb6c5a6c39
:10552c00012350f0a2fd0346002b05d0fb6c012299
:10553c0083f8312001231fe0fb6c93f8303003f02b
:10554c007f03dab2fb6c83f830203b6d5878fb6c30
:10555c0003f1500101237a6e50f070fd0346002bcd
:10556c0005d0fb6c012283f83120012304e0fb6c95
:10557c007a6e5a6497f86f3018467437bd46bde89a
:10558c00f08f90b585b000af786039607b68002be8
:10559c0001d109237fe007f108013b4600221846a0
:1055ac00fef77df90346fb73fb7b002b6cd1ba68cd
:1055bc007b681a603b6819467868fdf713ff034651
:1055cc00fb73fb7b002b5ad17b6893f84b305bb29f
:1055dc00002b2fdb7b689b7903f01003002b27d06b
:1055ec00bb681b78042b18d17b689a687b681a629d
:1055fc007b68d3e9043423f0ff037a68d2791a4329
:10560c007b685a627b68da6c7b689a62bb687a68e2
:10561c0011461846fcf7ccfd0ce0ba687b68db6bd6
:10562c0019461046fcf741fa02467b689a6001e085
:10563c000523fb73fb7b002b21d1bb68da887b68cd
:10564c009a8000217868fcf7a9f80346fb73fb7b72
:10565c00002b14d17b689b68002b0dd0002178683f
:10566c00fbf7f2f802467b68da627b68db6a002b98
:10567c0005d11223fb7302e07b680022da62fb7b0c
:10568c00042b01d10523fb73fb7b002b02d07b6821
:10569c0000221a60fb7b18461437bd4690bd80b5be
:1056ac0084b000af78607b6807f108021146184699
:1056bc00fef742fc0346fb73fb7b002b10d17b688f
:1056cc00db6a002b06d07b68db6a1846fbf74af9cd
:1056dc000346fb73fb7b002b02d17b6800221a6014
:1056ec00fb7b18461037bd4680bd80b584b000af3b
:1056fc00786039607b6807f1080211461846fef79e
:10570c001bfc0346fb73fb7b002b26d13b68002b59
:10571c0006d100217868fcf741f80346fb731ce0c6
:10572c0000217868fcf76ffe0346fb73fb7b042bb0
:10573c0001d10023fb73fb7b002b0ed139687868f9
:10574c00fdf75cfa00217868fcf7aef80346fb73b2
:10575c00fb7b042b01d10023fb73fb7b184610371a
:10576c00bd4680bd80b598b000af7860396007f158
:10577c0008013b1d00221846fef791f8034687f8f6
:10578c005f3097f85f30002b1fd17a6807f1080360
:10579c0011461846fdf726fe034687f85f3097f84a
:1057ac005f30002b11d197f853305bb2002b03da2a
:1057bc00062387f85f3008e03b68002b05d007f123
:1057cc00080339681846fdf719fa97f85f30184640
:1057dc006037bd4680bd80b59ab000aff860b96047
:1057ec007a6007f1440107f10c0300221846fef71a
:1057fc0056f8034687f8673097f86730002b40f06f
:10580c00e9807a6c7b681a607b6c9a697b6cdb6aca
:10581c00023b9a4204d87b6c9a69bb681a60d9e047
:10582c0000233b667b6c1b78012b28d10223fb6584
:10583c007b6c3b6107f11003f96d1846fbf7e9f936
:10584c00b864bb6cb3f1ff3f03d1012387f8673019
:10585c00afe0bb6c012b03d1022387f86730a8e0c3
:10586c00bb6c002b02d13b6e01333b66fb6d0133ed
:10587c00fb657b6cdb6afa6d9a42dbd399e07b6c3f
:10588c001b78042b45d17b6cdb6a023bfb657b6c84
:10589c005b6cbb6500237b657b6d002b0dd1786c3d
:1058ac00bb6d5a1cba651946fbf7f8f8034687f826
:1058bc00673097f86730002b78d10823fb647a6c3b
:1058cc007b6d134450331b78db4387f8533011e066
:1058dc0097f8533003f001033a6e13443b6697f884
:1058ec0053305b0887f85330fb6c013bfb64fb6d5a
:1058fc00013bfb65fb6c002b02d0fb6d002be7d151
:10590c007b6d0133c3f308037b65fb6d002bc3d1a7
:10591c004fe07b6cdb6afb657b6c9b6bbb65002390
:10592c007b657b6d002b0dd1786cbb6d5a1cba65f9
:10593c001946fbf7b3f8034687f8673097f86730da
:10594c00002b35d17b6c1b78022b11d17b6c03f1b6
:10595c0050027b6d13441846faf792fc0346002b59
:10596c0002d13b6e01333b667b6d02337b6512e0eb
:10597c007b6c03f150027b6d13441846faf798fccc
:10598c00034623f07043002b02d13b6e01333b6680
:10599c007b6d04337b657b6dc3f308037b65fb6d0b
:1059ac00013bfb65fb6d002bbbd102e000bf00e0af
:1059bc0000bf97f86730002b0cd1bb683a6e1a60a9
:1059cc007b6c3a6e9a617b6c5a797b6c42f001026b
:1059dc00d2b25a7197f8673018466837bd4680bd09
:1059ec0090b587b000af78607b6807f10c02114668
:1059fc001846fef7a1fa0346fb75fb7d002b06d17a
:105a0c007b6893f83130fb75fb7d002b01d0fb7d5f
:105a1c0085e07b6893f8303003f00203002b01d152
:105a2c0007237ce07b68d3e90e127b68d3e904344e
:105a3c00a24208bf994271d27b68d3e90e3423434a
:105a4c000cd178687b689b6800221946fbf741fcf7
:105a5c000346fb757b6800229a6025e07a687b68b8
:105a6c001b6c19461046fbf7d4f838610023fb7504
:105a7c003b69b3f1ff3f01d10123fb753b69012b5e
:105a8c0001d10223fb75fb7d002b0dd1fb68db6a7a
:105a9c003a699a4208d278687b681b6c1a46396955
:105aac00fbf717fc0346fb757b68d3e90e347a6869
:105abc00c2e904347b6893f8303043f04003dab227
